{
  "_format": "hh-sol-artifact-1",
  "contractName": "Freenet",
  "sourceName": "contracts/Freenet.sol",
  "abi": [
    {
      "inputs": [],
      "stateMutability": "nonpayable",
      "type": "constructor"
    },
    {
      "anonymous": false,
      "inputs": [
        {
          "indexed": true,
          "internalType": "address",
          "name": "owner",
          "type": "address"
        },
        {
          "indexed": true,
          "internalType": "address",
          "name": "approved",
          "type": "address"
        },
        {
          "indexed": true,
          "internalType": "uint256",
          "name": "tokenId",
          "type": "uint256"
        }
      ],
      "name": "Approval",
      "type": "event"
    },
    {
      "anonymous": false,
      "inputs": [
        {
          "indexed": true,
          "internalType": "address",
          "name": "owner",
          "type": "address"
        },
        {
          "indexed": true,
          "internalType": "address",
          "name": "operator",
          "type": "address"
        },
        {
          "indexed": false,
          "internalType": "bool",
          "name": "approved",
          "type": "bool"
        }
      ],
      "name": "ApprovalForAll",
      "type": "event"
    },
    {
      "anonymous": false,
      "inputs": [
        {
          "indexed": true,
          "internalType": "address",
          "name": "previousOwner",
          "type": "address"
        },
        {
          "indexed": true,
          "internalType": "address",
          "name": "newOwner",
          "type": "address"
        }
      ],
      "name": "OwnershipTransferred",
      "type": "event"
    },
    {
      "anonymous": false,
      "inputs": [
        {
          "indexed": true,
          "internalType": "address",
          "name": "from",
          "type": "address"
        },
        {
          "indexed": true,
          "internalType": "address",
          "name": "to",
          "type": "address"
        },
        {
          "indexed": true,
          "internalType": "uint256",
          "name": "tokenId",
          "type": "uint256"
        }
      ],
      "name": "Transfer",
      "type": "event"
    },
    {
      "inputs": [],
      "name": "MAX_UNITS",
      "outputs": [
        {
          "internalType": "uint256",
          "name": "",
          "type": "uint256"
        }
      ],
      "stateMutability": "view",
      "type": "function"
    },
    {
      "inputs": [
        {
          "internalType": "address",
          "name": "to",
          "type": "address"
        },
        {
          "internalType": "uint256",
          "name": "tokenId",
          "type": "uint256"
        }
      ],
      "name": "approve",
      "outputs": [],
      "stateMutability": "nonpayable",
      "type": "function"
    },
    {
      "inputs": [
        {
          "internalType": "address",
          "name": "owner",
          "type": "address"
        }
      ],
      "name": "balanceOf",
      "outputs": [
        {
          "internalType": "uint256",
          "name": "",
          "type": "uint256"
        }
      ],
      "stateMutability": "view",
      "type": "function"
    },
    {
      "inputs": [
        {
          "internalType": "uint256",
          "name": "tokenId",
          "type": "uint256"
        }
      ],
      "name": "burn",
      "outputs": [],
      "stateMutability": "nonpayable",
      "type": "function"
    },
    {
      "inputs": [
        {
          "internalType": "uint256",
          "name": "tokenId",
          "type": "uint256"
        }
      ],
      "name": "getApproved",
      "outputs": [
        {
          "internalType": "address",
          "name": "",
          "type": "address"
        }
      ],
      "stateMutability": "view",
      "type": "function"
    },
    {
      "inputs": [
        {
          "internalType": "address",
          "name": "owner",
          "type": "address"
        },
        {
          "internalType": "address",
          "name": "operator",
          "type": "address"
        }
      ],
      "name": "isApprovedForAll",
      "outputs": [
        {
          "internalType": "bool",
          "name": "",
          "type": "bool"
        }
      ],
      "stateMutability": "view",
      "type": "function"
    },
    {
      "inputs": [
        {
          "internalType": "address",
          "name": "_to",
          "type": "address"
        },
        {
          "internalType": "string",
          "name": "_hashUrl",
          "type": "string"
        }
      ],
      "name": "mintToken",
      "outputs": [
        {
          "internalType": "uint256",
          "name": "retVal",
          "type": "uint256"
        }
      ],
      "stateMutability": "payable",
      "type": "function"
    },
    {
      "inputs": [],
      "name": "name",
      "outputs": [
        {
          "internalType": "string",
          "name": "",
          "type": "string"
        }
      ],
      "stateMutability": "view",
      "type": "function"
    },
    {
      "inputs": [],
      "name": "owner",
      "outputs": [
        {
          "internalType": "address",
          "name": "",
          "type": "address"
        }
      ],
      "stateMutability": "view",
      "type": "function"
    },
    {
      "inputs": [
        {
          "internalType": "uint256",
          "name": "tokenId",
          "type": "uint256"
        }
      ],
      "name": "ownerOf",
      "outputs": [
        {
          "internalType": "address",
          "name": "",
          "type": "address"
        }
      ],
      "stateMutability": "view",
      "type": "function"
    },
    {
      "inputs": [],
      "name": "renounceOwnership",
      "outputs": [],
      "stateMutability": "nonpayable",
      "type": "function"
    },
    {
      "inputs": [
        {
          "internalType": "address",
          "name": "from",
          "type": "address"
        },
        {
          "internalType": "address",
          "name": "to",
          "type": "address"
        },
        {
          "internalType": "uint256",
          "name": "tokenId",
          "type": "uint256"
        }
      ],
      "name": "safeTransferFrom",
      "outputs": [],
      "stateMutability": "nonpayable",
      "type": "function"
    },
    {
      "inputs": [
        {
          "internalType": "address",
          "name": "from",
          "type": "address"
        },
        {
          "internalType": "address",
          "name": "to",
          "type": "address"
        },
        {
          "internalType": "uint256",
          "name": "tokenId",
          "type": "uint256"
        },
        {
          "internalType": "bytes",
          "name": "_data",
          "type": "bytes"
        }
      ],
      "name": "safeTransferFrom",
      "outputs": [],
      "stateMutability": "nonpayable",
      "type": "function"
    },
    {
      "inputs": [
        {
          "internalType": "address",
          "name": "operator",
          "type": "address"
        },
        {
          "internalType": "bool",
          "name": "approved",
          "type": "bool"
        }
      ],
      "name": "setApprovalForAll",
      "outputs": [],
      "stateMutability": "nonpayable",
      "type": "function"
    },
    {
      "inputs": [
        {
          "internalType": "string",
          "name": "_newUri",
          "type": "string"
        }
      ],
      "name": "setBaseURI",
      "outputs": [],
      "stateMutability": "payable",
      "type": "function"
    },
    {
      "inputs": [
        {
          "internalType": "bytes4",
          "name": "interfaceId",
          "type": "bytes4"
        }
      ],
      "name": "supportsInterface",
      "outputs": [
        {
          "internalType": "bool",
          "name": "",
          "type": "bool"
        }
      ],
      "stateMutability": "view",
      "type": "function"
    },
    {
      "inputs": [],
      "name": "symbol",
      "outputs": [
        {
          "internalType": "string",
          "name": "",
          "type": "string"
        }
      ],
      "stateMutability": "view",
      "type": "function"
    },
    {
      "inputs": [
        {
          "internalType": "uint256",
          "name": "index",
          "type": "uint256"
        }
      ],
      "name": "tokenByIndex",
      "outputs": [
        {
          "internalType": "uint256",
          "name": "",
          "type": "uint256"
        }
      ],
      "stateMutability": "view",
      "type": "function"
    },
    {
      "inputs": [
        {
          "internalType": "address",
          "name": "owner",
          "type": "address"
        },
        {
          "internalType": "uint256",
          "name": "index",
          "type": "uint256"
        }
      ],
      "name": "tokenOfOwnerByIndex",
      "outputs": [
        {
          "internalType": "uint256",
          "name": "",
          "type": "uint256"
        }
      ],
      "stateMutability": "view",
      "type": "function"
    },
    {
      "inputs": [
        {
          "internalType": "uint256",
          "name": "tokenId",
          "type": "uint256"
        }
      ],
      "name": "tokenURI",
      "outputs": [
        {
          "internalType": "string",
          "name": "",
          "type": "string"
        }
      ],
      "stateMutability": "view",
      "type": "function"
    },
    {
      "inputs": [],
      "name": "totalSupply",
      "outputs": [
        {
          "internalType": "uint256",
          "name": "",
          "type": "uint256"
        }
      ],
      "stateMutability": "view",
      "type": "function"
    },
    {
      "inputs": [
        {
          "internalType": "address",
          "name": "from",
          "type": "address"
        },
        {
          "internalType": "address",
          "name": "to",
          "type": "address"
        },
        {
          "internalType": "uint256",
          "name": "tokenId",
          "type": "uint256"
        }
      ],
      "name": "transferFrom",
      "outputs": [],
      "stateMutability": "nonpayable",
      "type": "function"
    },
    {
      "inputs": [
        {
          "internalType": "address",
          "name": "newOwner",
          "type": "address"
        }
      ],
      "name": "transferOwnership",
      "outputs": [],
      "stateMutability": "nonpayable",
      "type": "function"
    },
    {
      "inputs": [],
      "name": "withdrawAll",
      "outputs": [],
      "stateMutability": "payable",
      "type": "function"
    }
  ],
  "bytecode": "0x60806040526040518060400160405280600781526020017f697066733a2f2f00000000000000000000000000000000000000000000000000815250600b908051906020019062000051929190620001f4565b503480156200005f57600080fd5b506040518060400160405280600781526020017f467265656e6574000000000000000000000000000000000000000000000000008152506040518060400160405280600381526020017f464e5400000000000000000000000000000000000000000000000000000000008152508160009080519060200190620000e4929190620001f4565b508060019080519060200190620000fd929190620001f4565b50505062000120620001146200012660201b60201c565b6200012e60201b60201c565b62000309565b600033905090565b6000600a60009054906101000a900473ffffffffffffffffffffffffffffffffffffffff16905081600a60006101000a81548173ffffffffffffffffffffffffffffffffffffffff021916908373ffffffffffffffffffffffffffffffffffffffff1602179055508173ffffffffffffffffffffffffffffffffffffffff168173ffffffffffffffffffffffffffffffffffffffff167f8be0079c531659141344cd1fd0a4f28419497f9722a3daafe3b4186f6b6457e060405160405180910390a35050565b8280546200020290620002a4565b90600052602060002090601f01602090048101928262000226576000855562000272565b82601f106200024157805160ff191683800117855562000272565b8280016001018555821562000272579182015b828111156200027157825182559160200191906001019062000254565b5b50905062000281919062000285565b5090565b5b80821115620002a057600081600090555060010162000286565b5090565b60006002820490506001821680620002bd57607f821691505b60208210811415620002d457620002d3620002da565b5b50919050565b7f4e487b7100000000000000000000000000000000000000000000000000000000600052602260045260246000fd5b613df380620003196000396000f3fe60806040526004361061014b5760003560e01c806355f804b3116100b657806395d89b411161006f57806395d89b411461047b578063a22cb465146104a6578063b88d4fde146104cf578063c87b56dd146104f8578063e985e9c514610535578063f2fde38b146105725761014b565b806355f804b3146103995780636352211e146103b557806370a08231146103f2578063715018a61461042f578063853828b6146104465780638da5cb5b146104505761014b565b806323b872dd1161010857806323b872dd146102745780632f745c591461029d5780633d02d0c9146102da57806342842e0e1461030a57806342966c68146103335780634f6ccce71461035c5761014b565b806301ffc9a71461015057806306fdde031461018d578063081812fc146101b8578063095ea7b3146101f557806318160ddd1461021e5780632163837f14610249575b600080fd5b34801561015c57600080fd5b5061017760048036038101906101729190612b3f565b61059b565b60405161018491906130fa565b60405180910390f35b34801561019957600080fd5b506101a2610615565b6040516101af9190613115565b60405180910390f35b3480156101c457600080fd5b506101df60048036038101906101da9190612bd2565b6106a7565b6040516101ec9190613093565b60405180910390f35b34801561020157600080fd5b5061021c60048036038101906102179190612b03565b61072c565b005b34801561022a57600080fd5b50610233610844565b6040516102409190613417565b60405180910390f35b34801561025557600080fd5b5061025e610851565b60405161026b9190613417565b60405180910390f35b34801561028057600080fd5b5061029b600480360381019061029691906129a9565b61085a565b005b3480156102a957600080fd5b506102c460048036038101906102bf9190612b03565b6108ba565b6040516102d19190613417565b60405180910390f35b6102f460048036038101906102ef9190612aaf565b61095f565b6040516103019190613417565b60405180910390f35b34801561031657600080fd5b50610331600480360381019061032c91906129a9565b610b49565b005b34801561033f57600080fd5b5061035a60048036038101906103559190612bd2565b610b69565b005b34801561036857600080fd5b50610383600480360381019061037e9190612bd2565b610c38565b6040516103909190613417565b60405180910390f35b6103b360048036038101906103ae9190612b91565b610ccf565b005b3480156103c157600080fd5b506103dc60048036038101906103d79190612bd2565b610d65565b6040516103e99190613093565b60405180910390f35b3480156103fe57600080fd5b5061041960048036038101906104149190612944565b610e17565b6040516104269190613417565b60405180910390f35b34801561043b57600080fd5b50610444610ecf565b005b61044e610f57565b005b34801561045c57600080fd5b5061046561101a565b6040516104729190613093565b60405180910390f35b34801561048757600080fd5b50610490611044565b60405161049d9190613115565b60405180910390f35b3480156104b257600080fd5b506104cd60048036038101906104c89190612a73565b6110d6565b005b3480156104db57600080fd5b506104f660048036038101906104f191906129f8565b611257565b005b34801561050457600080fd5b5061051f600480360381019061051a9190612bd2565b6112b9565b60405161052c9190613115565b60405180910390f35b34801561054157600080fd5b5061055c6004803603810190610557919061296d565b61146c565b60405161056991906130fa565b60405180910390f35b34801561057e57600080fd5b5061059960048036038101906105949190612944565b611500565b005b60007f780e9d63000000000000000000000000000000000000000000000000000000007bffffffffffffffffffffffffffffffffffffffffffffffffffffffff1916827bffffffffffffffffffffffffffffffffffffffffffffffffffffffff1916148061060e575061060d826115f8565b5b9050919050565b60606000805461062490613651565b80601f016020809104026020016040519081016040528092919081815260200182805461065090613651565b801561069d5780601f106106725761010080835404028352916020019161069d565b820191906000526020600020905b81548152906001019060200180831161068057829003601f168201915b5050505050905090565b60006106b2826116da565b6106f1576040517f08c379a00000000000000000000000000000000000000000000000000000000081526004016106e890613337565b60405180910390fd5b6004600083815260200190815260200160002060009054906101000a900473ffffffffffffffffffffffffffffffffffffffff169050919050565b600061073782610d65565b90508073ffffffffffffffffffffffffffffffffffffffff168373ffffffffffffffffffffffffffffffffffffffff1614156107a8576040517f08c379a000000000000000000000000000000000000000000000000000000000815260040161079f906133b7565b60405180910390fd5b8073ffffffffffffffffffffffffffffffffffffffff166107c7611746565b73ffffffffffffffffffffffffffffffffffffffff1614806107f657506107f5816107f0611746565b61146c565b5b610835576040517f08c379a000000000000000000000000000000000000000000000000000000000815260040161082c90613237565b60405180910390fd5b61083f838361174e565b505050565b6000600880549050905090565b64174876e80081565b61086b610865611746565b82611807565b6108aa576040517f08c379a00000000000000000000000000000000000000000000000000000000081526004016108a1906133d7565b60405180910390fd5b6108b58383836118e5565b505050565b60006108c583610e17565b8210610906576040517f08c379a00000000000000000000000000000000000000000000000000000000081526004016108fd90613137565b60405180910390fd5b600660008473ffffffffffffffffffffffffffffffffffffffff1673ffffffffffffffffffffffffffffffffffffffff168152602001908152602001600020600083815260200190815260200160002054905092915050565b600064174876e80061096f610844565b106109af576040517f08c379a00000000000000000000000000000000000000000000000000000000081526004016109a6906132f7565b60405180910390fd5b6109b7611746565b73ffffffffffffffffffffffffffffffffffffffff166109d561101a565b73ffffffffffffffffffffffffffffffffffffffff1614610a2b576040517f08c379a0000000000000000000000000000000000000000000000000000000008152600401610a2290613357565b60405180910390fd5b64174876e8006001610a3b610844565b610a459190613511565b1115610a86576040517f08c379a0000000000000000000000000000000000000000000000000000000008152600401610a7d906131f7565b60405180910390fd5b64174876e800610a94610844565b10610ad4576040517f08c379a0000000000000000000000000000000000000000000000000000000008152600401610acb906132f7565b60405180910390fd5b6000610adf84610e17565b14610b1f576040517f08c379a0000000000000000000000000000000000000000000000000000000008152600401610b16906132b7565b60405180910390fd5b6000610b29610844565b9050610b358482611b41565b610b3f8184611b5f565b8091505092915050565b610b6483838360405180602001604052806000815250611257565b505050565b610b71611746565b73ffffffffffffffffffffffffffffffffffffffff16610b8f61101a565b73ffffffffffffffffffffffffffffffffffffffff1614610be5576040517f08c379a0000000000000000000000000000000000000000000000000000000008152600401610bdc90613357565b60405180910390fd5b610bee81611bd3565b6000600c60008381526020019081526020016000208054610c0e90613651565b905014610c3557600c60008281526020019081526020016000206000610c349190612728565b5b50565b6000610c42610844565b8210610c83576040517f08c379a0000000000000000000000000000000000000000000000000000000008152600401610c7a906133f7565b60405180910390fd5b60088281548110610cbd577f4e487b7100000000000000000000000000000000000000000000000000000000600052603260045260246000fd5b90600052602060002001549050919050565b610cd7611746565b73ffffffffffffffffffffffffffffffffffffffff16610cf561101a565b73ffffffffffffffffffffffffffffffffffffffff1614610d4b576040517f08c379a0000000000000000000000000000000000000000000000000000000008152600401610d4290613357565b60405180910390fd5b80600b9080519060200190610d61929190612768565b5050565b6000806002600084815260200190815260200160002060009054906101000a900473ffffffffffffffffffffffffffffffffffffffff169050600073ffffffffffffffffffffffffffffffffffffffff168173ffffffffffffffffffffffffffffffffffffffff161415610e0e576040517f08c379a0000000000000000000000000000000000000000000000000000000008152600401610e0590613277565b60405180910390fd5b80915050919050565b60008073ffffffffffffffffffffffffffffffffffffffff168273ffffffffffffffffffffffffffffffffffffffff161415610e88576040517f08c379a0000000000000000000000000000000000000000000000000000000008152600401610e7f90613257565b60405180910390fd5b600360008373ffffffffffffffffffffffffffffffffffffffff1673ffffffffffffffffffffffffffffffffffffffff168152602001908152602001600020549050919050565b610ed7611746565b73ffffffffffffffffffffffffffffffffffffffff16610ef561101a565b73ffffffffffffffffffffffffffffffffffffffff1614610f4b576040517f08c379a0000000000000000000000000000000000000000000000000000000008152600401610f4290613357565b60405180910390fd5b610f556000611ce4565b565b610f5f611746565b73ffffffffffffffffffffffffffffffffffffffff16610f7d61101a565b73ffffffffffffffffffffffffffffffffffffffff1614610fd3576040517f08c379a0000000000000000000000000000000000000000000000000000000008152600401610fca90613357565b60405180910390fd5b610fdb611746565b73ffffffffffffffffffffffffffffffffffffffff166108fc479081150290604051600060405180830381858888f1935050505061101857600080fd5b565b6000600a60009054906101000a900473ffffffffffffffffffffffffffffffffffffffff16905090565b60606001805461105390613651565b80601f016020809104026020016040519081016040528092919081815260200182805461107f90613651565b80156110cc5780601f106110a1576101008083540402835291602001916110cc565b820191906000526020600020905b8154815290600101906020018083116110af57829003601f168201915b5050505050905090565b6110de611746565b73ffffffffffffffffffffffffffffffffffffffff168273ffffffffffffffffffffffffffffffffffffffff16141561114c576040517f08c379a0000000000000000000000000000000000000000000000000000000008152600401611143906131d7565b60405180910390fd5b8060056000611159611746565b73ffffffffffffffffffffffffffffffffffffffff1673ffffffffffffffffffffffffffffffffffffffff16815260200190815260200160002060008473ffffffffffffffffffffffffffffffffffffffff1673ffffffffffffffffffffffffffffffffffffffff16815260200190815260200160002060006101000a81548160ff0219169083151502179055508173ffffffffffffffffffffffffffffffffffffffff16611206611746565b73ffffffffffffffffffffffffffffffffffffffff167f17307eab39ab6107e8899845ad3d59bd9653f200f220920489ca2b5937696c318360405161124b91906130fa565b60405180910390a35050565b611268611262611746565b83611807565b6112a7576040517f08c379a000000000000000000000000000000000000000000000000000000000815260040161129e906133d7565b60405180910390fd5b6112b384848484611daa565b50505050565b60606112c4826116da565b611303576040517f08c379a00000000000000000000000000000000000000000000000000000000081526004016112fa90613317565b60405180910390fd5b6000600c6000848152602001908152602001600020805461132390613651565b80601f016020809104026020016040519081016040528092919081815260200182805461134f90613651565b801561139c5780601f106113715761010080835404028352916020019161139c565b820191906000526020600020905b81548152906001019060200180831161137f57829003601f168201915b505050505090506000815111156113d857600b816040516020016113c192919061306f565b604051602081830303815290604052915050611467565b600b80546113e590613651565b80601f016020809104026020016040519081016040528092919081815260200182805461141190613651565b801561145e5780601f106114335761010080835404028352916020019161145e565b820191906000526020600020905b81548152906001019060200180831161144157829003601f168201915b50505050509150505b919050565b6000600560008473ffffffffffffffffffffffffffffffffffffffff1673ffffffffffffffffffffffffffffffffffffffff16815260200190815260200160002060008373ffffffffffffffffffffffffffffffffffffffff1673ffffffffffffffffffffffffffffffffffffffff16815260200190815260200160002060009054906101000a900460ff16905092915050565b611508611746565b73ffffffffffffffffffffffffffffffffffffffff1661152661101a565b73ffffffffffffffffffffffffffffffffffffffff161461157c576040517f08c379a000000000000000000000000000000000000000000000000000000000815260040161157390613357565b60405180910390fd5b600073ffffffffffffffffffffffffffffffffffffffff168173ffffffffffffffffffffffffffffffffffffffff1614156115ec576040517f08c379a00000000000000000000000000000000000000000000000000000000081526004016115e390613177565b60405180910390fd5b6115f581611ce4565b50565b60007f80ac58cd000000000000000000000000000000000000000000000000000000007bffffffffffffffffffffffffffffffffffffffffffffffffffffffff1916827bffffffffffffffffffffffffffffffffffffffffffffffffffffffff191614806116c357507f5b5e139f000000000000000000000000000000000000000000000000000000007bffffffffffffffffffffffffffffffffffffffffffffffffffffffff1916827bffffffffffffffffffffffffffffffffffffffffffffffffffffffff1916145b806116d357506116d282611e06565b5b9050919050565b60008073ffffffffffffffffffffffffffffffffffffffff166002600084815260200190815260200160002060009054906101000a900473ffffffffffffffffffffffffffffffffffffffff1673ffffffffffffffffffffffffffffffffffffffff1614159050919050565b600033905090565b816004600083815260200190815260200160002060006101000a81548173ffffffffffffffffffffffffffffffffffffffff021916908373ffffffffffffffffffffffffffffffffffffffff160217905550808273ffffffffffffffffffffffffffffffffffffffff166117c183610d65565b73ffffffffffffffffffffffffffffffffffffffff167f8c5be1e5ebec7d5bd14f71427d1e84f3dd0314c0f7b2291e5b200ac8c7c3b92560405160405180910390a45050565b6000611812826116da565b611851576040517f08c379a000000000000000000000000000000000000000000000000000000000815260040161184890613217565b60405180910390fd5b600061185c83610d65565b90508073ffffffffffffffffffffffffffffffffffffffff168473ffffffffffffffffffffffffffffffffffffffff1614806118cb57508373ffffffffffffffffffffffffffffffffffffffff166118b3846106a7565b73ffffffffffffffffffffffffffffffffffffffff16145b806118dc57506118db818561146c565b5b91505092915050565b8273ffffffffffffffffffffffffffffffffffffffff1661190582610d65565b73ffffffffffffffffffffffffffffffffffffffff161461195b576040517f08c379a000000000000000000000000000000000000000000000000000000000815260040161195290613377565b60405180910390fd5b600073ffffffffffffffffffffffffffffffffffffffff168273ffffffffffffffffffffffffffffffffffffffff1614156119cb576040517f08c379a00000000000000000000000000000000000000000000000000000000081526004016119c2906131b7565b60405180910390fd5b6119d6838383611e70565b6119e160008261174e565b6001600360008573ffffffffffffffffffffffffffffffffffffffff1673ffffffffffffffffffffffffffffffffffffffff1681526020019081526020016000206000828254611a319190613567565b925050819055506001600360008473ffffffffffffffffffffffffffffffffffffffff1673ffffffffffffffffffffffffffffffffffffffff1681526020019081526020016000206000828254611a889190613511565b92505081905550816002600083815260200190815260200160002060006101000a81548173ffffffffffffffffffffffffffffffffffffffff021916908373ffffffffffffffffffffffffffffffffffffffff160217905550808273ffffffffffffffffffffffffffffffffffffffff168473ffffffffffffffffffffffffffffffffffffffff167fddf252ad1be2c89b69c2b068fc378daa952ba7f163c4a11628f55a4df523b3ef60405160405180910390a4505050565b611b5b828260405180602001604052806000815250611ec4565b5050565b611b68826116da565b611ba7576040517f08c379a0000000000000000000000000000000000000000000000000000000008152600401611b9e90613297565b60405180910390fd5b80600c60008481526020019081526020016000209080519060200190611bce929190612768565b505050565b6000611bde82610d65565b9050611bec81600084611e70565b611bf760008361174e565b6001600360008373ffffffffffffffffffffffffffffffffffffffff1673ffffffffffffffffffffffffffffffffffffffff1681526020019081526020016000206000828254611c479190613567565b925050819055506002600083815260200190815260200160002060006101000a81549073ffffffffffffffffffffffffffffffffffffffff021916905581600073ffffffffffffffffffffffffffffffffffffffff168273ffffffffffffffffffffffffffffffffffffffff167fddf252ad1be2c89b69c2b068fc378daa952ba7f163c4a11628f55a4df523b3ef60405160405180910390a45050565b6000600a60009054906101000a900473ffffffffffffffffffffffffffffffffffffffff16905081600a60006101000a81548173ffffffffffffffffffffffffffffffffffffffff021916908373ffffffffffffffffffffffffffffffffffffffff1602179055508173ffffffffffffffffffffffffffffffffffffffff168173ffffffffffffffffffffffffffffffffffffffff167f8be0079c531659141344cd1fd0a4f28419497f9722a3daafe3b4186f6b6457e060405160405180910390a35050565b611db58484846118e5565b611dc184848484611f1f565b611e00576040517f08c379a0000000000000000000000000000000000000000000000000000000008152600401611df790613157565b60405180910390fd5b50505050565b60007f01ffc9a7000000000000000000000000000000000000000000000000000000007bffffffffffffffffffffffffffffffffffffffffffffffffffffffff1916827bffffffffffffffffffffffffffffffffffffffffffffffffffffffff1916149050919050565b611e7b8383836120b6565b6001801415611ebf576040517f08c379a0000000000000000000000000000000000000000000000000000000008152600401611eb690613397565b60405180910390fd5b505050565b611ece83836121ca565b611edb6000848484611f1f565b611f1a576040517f08c379a0000000000000000000000000000000000000000000000000000000008152600401611f1190613157565b60405180910390fd5b505050565b6000611f408473ffffffffffffffffffffffffffffffffffffffff16612398565b156120a9578373ffffffffffffffffffffffffffffffffffffffff1663150b7a02611f69611746565b8786866040518563ffffffff1660e01b8152600401611f8b94939291906130ae565b602060405180830381600087803b158015611fa557600080fd5b505af1925050508015611fd657506040513d601f19601f82011682018060405250810190611fd39190612b68565b60015b612059573d8060008114612006576040519150601f19603f3d011682016040523d82523d6000602084013e61200b565b606091505b50600081511415612051576040517f08c379a000000000000000000000000000000000000000000000000000000000815260040161204890613157565b60405180910390fd5b805181602001fd5b63150b7a0260e01b7bffffffffffffffffffffffffffffffffffffffffffffffffffffffff1916817bffffffffffffffffffffffffffffffffffffffffffffffffffffffff1916149150506120ae565b600190505b949350505050565b6120c18383836123ab565b600073ffffffffffffffffffffffffffffffffffffffff168373ffffffffffffffffffffffffffffffffffffffff161415612104576120ff816123b0565b612143565b8173ffffffffffffffffffffffffffffffffffffffff168373ffffffffffffffffffffffffffffffffffffffff16146121425761214183826123f9565b5b5b600073ffffffffffffffffffffffffffffffffffffffff168273ffffffffffffffffffffffffffffffffffffffff1614156121865761218181612566565b6121c5565b8273ffffffffffffffffffffffffffffffffffffffff168273ffffffffffffffffffffffffffffffffffffffff16146121c4576121c382826126a9565b5b5b505050565b600073ffffffffffffffffffffffffffffffffffffffff168273ffffffffffffffffffffffffffffffffffffffff16141561223a576040517f08c379a0000000000000000000000000000000000000000000000000000000008152600401612231906132d7565b60405180910390fd5b612243816116da565b15612283576040517f08c379a000000000000000000000000000000000000000000000000000000000815260040161227a90613197565b60405180910390fd5b61228f60008383611e70565b6001600360008473ffffffffffffffffffffffffffffffffffffffff1673ffffffffffffffffffffffffffffffffffffffff16815260200190815260200160002060008282546122df9190613511565b92505081905550816002600083815260200190815260200160002060006101000a81548173ffffffffffffffffffffffffffffffffffffffff021916908373ffffffffffffffffffffffffffffffffffffffff160217905550808273ffffffffffffffffffffffffffffffffffffffff16600073ffffffffffffffffffffffffffffffffffffffff167fddf252ad1be2c89b69c2b068fc378daa952ba7f163c4a11628f55a4df523b3ef60405160405180910390a45050565b600080823b905060008111915050919050565b505050565b6008805490506009600083815260200190815260200160002081905550600881908060018154018082558091505060019003906000526020600020016000909190919091505550565b6000600161240684610e17565b6124109190613567565b90506000600760008481526020019081526020016000205490508181146124f5576000600660008673ffffffffffffffffffffffffffffffffffffffff1673ffffffffffffffffffffffffffffffffffffffff168152602001908152602001600020600084815260200190815260200160002054905080600660008773ffffffffffffffffffffffffffffffffffffffff1673ffffffffffffffffffffffffffffffffffffffff168152602001908152602001600020600084815260200190815260200160002081905550816007600083815260200190815260200160002081905550505b6007600084815260200190815260200160002060009055600660008573ffffffffffffffffffffffffffffffffffffffff1673ffffffffffffffffffffffffffffffffffffffff16815260200190815260200160002060008381526020019081526020016000206000905550505050565b6000600160088054905061257a9190613567565b90506000600960008481526020019081526020016000205490506000600883815481106125d0577f4e487b7100000000000000000000000000000000000000000000000000000000600052603260045260246000fd5b906000526020600020015490508060088381548110612618577f4e487b7100000000000000000000000000000000000000000000000000000000600052603260045260246000fd5b90600052602060002001819055508160096000838152602001908152602001600020819055506009600085815260200190815260200160002060009055600880548061268d577f4e487b7100000000000000000000000000000000000000000000000000000000600052603160045260246000fd5b6001900381819060005260206000200160009055905550505050565b60006126b483610e17565b905081600660008573ffffffffffffffffffffffffffffffffffffffff1673ffffffffffffffffffffffffffffffffffffffff168152602001908152602001600020600083815260200190815260200160002081905550806007600084815260200190815260200160002081905550505050565b50805461273490613651565b6000825580601f106127465750612765565b601f01602090049060005260206000209081019061276491906127ee565b5b50565b82805461277490613651565b90600052602060002090601f01602090048101928261279657600085556127dd565b82601f106127af57805160ff19168380011785556127dd565b828001600101855582156127dd579182015b828111156127dc5782518255916020019190600101906127c1565b5b5090506127ea91906127ee565b5090565b5b808211156128075760008160009055506001016127ef565b5090565b600061281e61281984613457565b613432565b90508281526020810184848401111561283657600080fd5b61284184828561360f565b509392505050565b600061285c61285784613488565b613432565b90508281526020810184848401111561287457600080fd5b61287f84828561360f565b509392505050565b60008135905061289681613d61565b92915050565b6000813590506128ab81613d78565b92915050565b6000813590506128c081613d8f565b92915050565b6000815190506128d581613d8f565b92915050565b600082601f8301126128ec57600080fd5b81356128fc84826020860161280b565b91505092915050565b600082601f83011261291657600080fd5b8135612926848260208601612849565b91505092915050565b60008135905061293e81613da6565b92915050565b60006020828403121561295657600080fd5b600061296484828501612887565b91505092915050565b6000806040838503121561298057600080fd5b600061298e85828601612887565b925050602061299f85828601612887565b9150509250929050565b6000806000606084860312156129be57600080fd5b60006129cc86828701612887565b93505060206129dd86828701612887565b92505060406129ee8682870161292f565b9150509250925092565b60008060008060808587031215612a0e57600080fd5b6000612a1c87828801612887565b9450506020612a2d87828801612887565b9350506040612a3e8782880161292f565b925050606085013567ffffffffffffffff811115612a5b57600080fd5b612a67878288016128db565b91505092959194509250565b60008060408385031215612a8657600080fd5b6000612a9485828601612887565b9250506020612aa58582860161289c565b9150509250929050565b60008060408385031215612ac257600080fd5b6000612ad085828601612887565b925050602083013567ffffffffffffffff811115612aed57600080fd5b612af985828601612905565b9150509250929050565b60008060408385031215612b1657600080fd5b6000612b2485828601612887565b9250506020612b358582860161292f565b9150509250929050565b600060208284031215612b5157600080fd5b6000612b5f848285016128b1565b91505092915050565b600060208284031215612b7a57600080fd5b6000612b88848285016128c6565b91505092915050565b600060208284031215612ba357600080fd5b600082013567ffffffffffffffff811115612bbd57600080fd5b612bc984828501612905565b91505092915050565b600060208284031215612be457600080fd5b6000612bf28482850161292f565b91505092915050565b612c048161359b565b82525050565b612c13816135ad565b82525050565b6000612c24826134ce565b612c2e81856134e4565b9350612c3e81856020860161361e565b612c4781613741565b840191505092915050565b6000612c5d826134d9565b612c6781856134f5565b9350612c7781856020860161361e565b612c8081613741565b840191505092915050565b6000612c96826134d9565b612ca08185613506565b9350612cb081856020860161361e565b80840191505092915050565b60008154612cc981613651565b612cd38186613506565b94506001821660008114612cee5760018114612cff57612d32565b60ff19831686528186019350612d32565b612d08856134b9565b60005b83811015612d2a57815481890152600182019150602081019050612d0b565b838801955050505b50505092915050565b6000612d48602b836134f5565b9150612d5382613752565b604082019050919050565b6000612d6b6032836134f5565b9150612d76826137a1565b604082019050919050565b6000612d8e6026836134f5565b9150612d99826137f0565b604082019050919050565b6000612db1601c836134f5565b9150612dbc8261383f565b602082019050919050565b6000612dd46024836134f5565b9150612ddf82613868565b604082019050919050565b6000612df76019836134f5565b9150612e02826138b7565b602082019050919050565b6000612e1a6009836134f5565b9150612e25826138e0565b602082019050919050565b6000612e3d602c836134f5565b9150612e4882613909565b604082019050919050565b6000612e606038836134f5565b9150612e6b82613958565b604082019050919050565b6000612e83602a836134f5565b9150612e8e826139a7565b604082019050919050565b6000612ea66029836134f5565b9150612eb1826139f6565b604082019050919050565b6000612ec9602e836134f5565b9150612ed482613a45565b604082019050919050565b6000612eec6023836134f5565b9150612ef782613a94565b604082019050919050565b6000612f0f6020836134f5565b9150612f1a82613ae3565b602082019050919050565b6000612f326008836134f5565b9150612f3d82613b0c565b602082019050919050565b6000612f556031836134f5565b9150612f6082613b35565b604082019050919050565b6000612f78602c836134f5565b9150612f8382613b84565b604082019050919050565b6000612f9b6020836134f5565b9150612fa682613bd3565b602082019050919050565b6000612fbe6029836134f5565b9150612fc982613bfc565b604082019050919050565b6000612fe1601f836134f5565b9150612fec82613c4b565b602082019050919050565b60006130046021836134f5565b915061300f82613c74565b604082019050919050565b60006130276031836134f5565b915061303282613cc3565b604082019050919050565b600061304a602c836134f5565b915061305582613d12565b604082019050919050565b61306981613605565b82525050565b600061307b8285612cbc565b91506130878284612c8b565b91508190509392505050565b60006020820190506130a86000830184612bfb565b92915050565b60006080820190506130c36000830187612bfb565b6130d06020830186612bfb565b6130dd6040830185613060565b81810360608301526130ef8184612c19565b905095945050505050565b600060208201905061310f6000830184612c0a565b92915050565b6000602082019050818103600083015261312f8184612c52565b905092915050565b6000602082019050818103600083015261315081612d3b565b9050919050565b6000602082019050818103600083015261317081612d5e565b9050919050565b6000602082019050818103600083015261319081612d81565b9050919050565b600060208201905081810360008301526131b081612da4565b9050919050565b600060208201905081810360008301526131d081612dc7565b9050919050565b600060208201905081810360008301526131f081612dea565b9050919050565b6000602082019050818103600083015261321081612e0d565b9050919050565b6000602082019050818103600083015261323081612e30565b9050919050565b6000602082019050818103600083015261325081612e53565b9050919050565b6000602082019050818103600083015261327081612e76565b9050919050565b6000602082019050818103600083015261329081612e99565b9050919050565b600060208201905081810360008301526132b081612ebc565b9050919050565b600060208201905081810360008301526132d081612edf565b9050919050565b600060208201905081810360008301526132f081612f02565b9050919050565b6000602082019050818103600083015261331081612f25565b9050919050565b6000602082019050818103600083015261333081612f48565b9050919050565b6000602082019050818103600083015261335081612f6b565b9050919050565b6000602082019050818103600083015261337081612f8e565b9050919050565b6000602082019050818103600083015261339081612fb1565b9050919050565b600060208201905081810360008301526133b081612fd4565b9050919050565b600060208201905081810360008301526133d081612ff7565b9050919050565b600060208201905081810360008301526133f08161301a565b9050919050565b600060208201905081810360008301526134108161303d565b9050919050565b600060208201905061342c6000830184613060565b92915050565b600061343c61344d565b90506134488282613683565b919050565b6000604051905090565b600067ffffffffffffffff82111561347257613471613712565b5b61347b82613741565b9050602081019050919050565b600067ffffffffffffffff8211156134a3576134a2613712565b5b6134ac82613741565b9050602081019050919050565b60008190508160005260206000209050919050565b600081519050919050565b600081519050919050565b600082825260208201905092915050565b600082825260208201905092915050565b600081905092915050565b600061351c82613605565b915061352783613605565b9250827fffffffffffffffffffffffffffffffffffffffffffffffffffffffffffffffff0382111561355c5761355b6136b4565b5b828201905092915050565b600061357282613605565b915061357d83613605565b9250828210156135905761358f6136b4565b5b828203905092915050565b60006135a6826135e5565b9050919050565b60008115159050919050565b60007fffffffff0000000000000000000000000000000000000000000000000000000082169050919050565b600073ffffffffffffffffffffffffffffffffffffffff82169050919050565b6000819050919050565b82818337600083830152505050565b60005b8381101561363c578082015181840152602081019050613621565b8381111561364b576000848401525b50505050565b6000600282049050600182168061366957607f821691505b6020821081141561367d5761367c6136e3565b5b50919050565b61368c82613741565b810181811067ffffffffffffffff821117156136ab576136aa613712565b5b80604052505050565b7f4e487b7100000000000000000000000000000000000000000000000000000000600052601160045260246000fd5b7f4e487b7100000000000000000000000000000000000000000000000000000000600052602260045260246000fd5b7f4e487b7100000000000000000000000000000000000000000000000000000000600052604160045260246000fd5b6000601f19601f8301169050919050565b7f455243373231456e756d657261626c653a206f776e657220696e646578206f7560008201527f74206f6620626f756e6473000000000000000000000000000000000000000000602082015250565b7f4552433732313a207472616e7366657220746f206e6f6e20455243373231526560008201527f63656976657220696d706c656d656e7465720000000000000000000000000000602082015250565b7f4f776e61626c653a206e6577206f776e657220697320746865207a65726f206160008201527f6464726573730000000000000000000000000000000000000000000000000000602082015250565b7f4552433732313a20746f6b656e20616c7265616479206d696e74656400000000600082015250565b7f4552433732313a207472616e7366657220746f20746865207a65726f2061646460008201527f7265737300000000000000000000000000000000000000000000000000000000602082015250565b7f4552433732313a20617070726f766520746f2063616c6c657200000000000000600082015250565b7f4d6178206c696d69740000000000000000000000000000000000000000000000600082015250565b7f4552433732313a206f70657261746f7220717565727920666f72206e6f6e657860008201527f697374656e7420746f6b656e0000000000000000000000000000000000000000602082015250565b7f4552433732313a20617070726f76652063616c6c6572206973206e6f74206f7760008201527f6e6572206e6f7220617070726f76656420666f7220616c6c0000000000000000602082015250565b7f4552433732313a2062616c616e636520717565727920666f7220746865207a6560008201527f726f206164647265737300000000000000000000000000000000000000000000602082015250565b7f4552433732313a206f776e657220717565727920666f72206e6f6e657869737460008201527f656e7420746f6b656e0000000000000000000000000000000000000000000000602082015250565b7f45524337323155524953746f726167653a2055524920736574206f66206e6f6e60008201527f6578697374656e7420746f6b656e000000000000000000000000000000000000602082015250565b7f4f6e6c7920616c6c6f77206f6e6520746f6b656e20746f206f6e65206164647260008201527f6573730000000000000000000000000000000000000000000000000000000000602082015250565b7f4552433732313a206d696e7420746f20746865207a65726f2061646472657373600082015250565b7f53616c6520656e64000000000000000000000000000000000000000000000000600082015250565b7f45524337323155524953746f726167653a2055524920717565727920666f722060008201527f6e6f6e6578697374656e7420746f6b656e000000000000000000000000000000602082015250565b7f4552433732313a20617070726f76656420717565727920666f72206e6f6e657860008201527f697374656e7420746f6b656e0000000000000000000000000000000000000000602082015250565b7f4f776e61626c653a2063616c6c6572206973206e6f7420746865206f776e6572600082015250565b7f4552433732313a207472616e73666572206f6620746f6b656e2074686174206960008201527f73206e6f74206f776e0000000000000000000000000000000000000000000000602082015250565b7f4e6f7420616c6c6f77656420746f207472616e7366657220746f6b656e732100600082015250565b7f4552433732313a20617070726f76616c20746f2063757272656e74206f776e6560008201527f7200000000000000000000000000000000000000000000000000000000000000602082015250565b7f4552433732313a207472616e736665722063616c6c6572206973206e6f74206f60008201527f776e6572206e6f7220617070726f766564000000000000000000000000000000602082015250565b7f455243373231456e756d657261626c653a20676c6f62616c20696e646578206f60008201527f7574206f6620626f756e64730000000000000000000000000000000000000000602082015250565b613d6a8161359b565b8114613d7557600080fd5b50565b613d81816135ad565b8114613d8c57600080fd5b50565b613d98816135b9565b8114613da357600080fd5b50565b613daf81613605565b8114613dba57600080fd5b5056fea264697066735822122069c69d45ccbffdb84ca96f15c55860338ceb47c2235a1ee80174c2020f189f5264736f6c63430008040033",
  "linkReferences": {},
  "deployedLinkReferences": {}
}